{
  "_format": "hh-sol-artifact-1",
  "contractName": "Campaign",
  "sourceName": "contracts/Campaign.sol",
  "abi": [
    {
      "inputs": [
        {
          "internalType": "string",
          "name": "nomeC",
          "type": "string"
        },
        {
          "internalType": "int256",
          "name": "latC",
          "type": "int256"
        },
        {
          "internalType": "int256",
          "name": "lngC",
          "type": "int256"
        }
      ],
      "stateMutability": "nonpayable",
      "type": "constructor"
    },
    {
      "inputs": [
        {
          "internalType": "address",
          "name": "addressD",
          "type": "address"
        },
        {
          "internalType": "int256",
          "name": "rankD",
          "type": "int256"
        },
        {
          "internalType": "bool",
          "name": "statusD",
          "type": "bool"
        }
      ],
      "name": "AddDevice",
      "outputs": [],
      "stateMutability": "nonpayable",
      "type": "function"
    },
    {
      "inputs": [],
      "name": "AddDeviceTop",
      "outputs": [],
      "stateMutability": "nonpayable",
      "type": "function"
    },
    {
      "inputs": [],
      "name": "OrdinaDevice",
      "outputs": [],
      "stateMutability": "nonpayable",
      "type": "function"
    },
    {
      "inputs": [
        {
          "internalType": "uint256",
          "name": "",
          "type": "uint256"
        }
      ],
      "name": "deviceTop",
      "outputs": [
        {
          "internalType": "address",
          "name": "addressDevice",
          "type": "address"
        },
        {
          "internalType": "int256",
          "name": "rank",
          "type": "int256"
        },
        {
          "internalType": "bool",
          "name": "status",
          "type": "bool"
        }
      ],
      "stateMutability": "view",
      "type": "function"
    },
    {
      "inputs": [
        {
          "internalType": "uint256",
          "name": "",
          "type": "uint256"
        }
      ],
      "name": "devices",
      "outputs": [
        {
          "internalType": "address",
          "name": "addressDevice",
          "type": "address"
        },
        {
          "internalType": "int256",
          "name": "rank",
          "type": "int256"
        },
        {
          "internalType": "bool",
          "name": "status",
          "type": "bool"
        }
      ],
      "stateMutability": "view",
      "type": "function"
    },
    {
      "inputs": [],
      "name": "getDevice",
      "outputs": [
        {
          "components": [
            {
              "internalType": "address",
              "name": "addressDevice",
              "type": "address"
            },
            {
              "internalType": "int256",
              "name": "rank",
              "type": "int256"
            },
            {
              "internalType": "bool",
              "name": "status",
              "type": "bool"
            }
          ],
          "internalType": "struct Campaign.device[]",
          "name": "",
          "type": "tuple[]"
        }
      ],
      "stateMutability": "view",
      "type": "function"
    },
    {
      "inputs": [],
      "name": "getDeviceCount",
      "outputs": [
        {
          "internalType": "uint256",
          "name": "",
          "type": "uint256"
        }
      ],
      "stateMutability": "view",
      "type": "function"
    },
    {
      "inputs": [],
      "name": "getDeviceTop",
      "outputs": [
        {
          "components": [
            {
              "internalType": "address",
              "name": "addressDevice",
              "type": "address"
            },
            {
              "internalType": "int256",
              "name": "rank",
              "type": "int256"
            },
            {
              "internalType": "bool",
              "name": "status",
              "type": "bool"
            }
          ],
          "internalType": "struct Campaign.device[]",
          "name": "",
          "type": "tuple[]"
        }
      ],
      "stateMutability": "view",
      "type": "function"
    },
    {
      "inputs": [],
      "name": "getDeviceTopCount",
      "outputs": [
        {
          "internalType": "uint256",
          "name": "",
          "type": "uint256"
        }
      ],
      "stateMutability": "view",
      "type": "function"
    },
    {
      "inputs": [],
      "name": "setStatus",
      "outputs": [],
      "stateMutability": "nonpayable",
      "type": "function"
    }
  ],
  "bytecode": "0x60806040523480156200001157600080fd5b50604051620016823803806200168283398181016040528101906200003791906200022e565b8260009081620000489190620004f4565b508160018190555080600281905550505050620005db565b6000604051905090565b600080fd5b600080fd5b600080fd5b600080fd5b6000601f19601f8301169050919050565b7f4e487b7100000000000000000000000000000000000000000000000000000000600052604160045260246000fd5b620000c9826200007e565b810181811067ffffffffffffffff82111715620000eb57620000ea6200008f565b5b80604052505050565b60006200010062000060565b90506200010e8282620000be565b919050565b600067ffffffffffffffff8211156200013157620001306200008f565b5b6200013c826200007e565b9050602081019050919050565b60005b83811015620001695780820151818401526020810190506200014c565b60008484015250505050565b60006200018c620001868462000113565b620000f4565b905082815260208101848484011115620001ab57620001aa62000079565b5b620001b884828562000149565b509392505050565b600082601f830112620001d857620001d762000074565b5b8151620001ea84826020860162000175565b91505092915050565b6000819050919050565b6200020881620001f3565b81146200021457600080fd5b50565b6000815190506200022881620001fd565b92915050565b6000806000606084860312156200024a57620002496200006a565b5b600084015167ffffffffffffffff8111156200026b576200026a6200006f565b5b6200027986828701620001c0565b93505060206200028c8682870162000217565b92505060406200029f8682870162000217565b9150509250925092565b600081519050919050565b7f4e487b7100000000000000000000000000000000000000000000000000000000600052602260045260246000fd5b60006002820490506001821680620002fc57607f821691505b602082108103620003125762000311620002b4565b5b50919050565b60008190508160005260206000209050919050565b60006020601f8301049050919050565b600082821b905092915050565b6000600883026200037c7fffffffffffffffffffffffffffffffffffffffffffffffffffffffffffffffff826200033d565b6200038886836200033d565b95508019841693508086168417925050509392505050565b6000819050919050565b6000819050919050565b6000620003d5620003cf620003c984620003a0565b620003aa565b620003a0565b9050919050565b6000819050919050565b620003f183620003b4565b620004096200040082620003dc565b8484546200034a565b825550505050565b600090565b6200042062000411565b6200042d818484620003e6565b505050565b5b8181101562000455576200044960008262000416565b60018101905062000433565b5050565b601f821115620004a4576200046e8162000318565b62000479846200032d565b8101602085101562000489578190505b620004a162000498856200032d565b83018262000432565b50505b505050565b600082821c905092915050565b6000620004c960001984600802620004a9565b1980831691505092915050565b6000620004e48383620004b6565b9150826002028217905092915050565b620004ff82620002a9565b67ffffffffffffffff8111156200051b576200051a6200008f565b5b620005278254620002e3565b6200053482828562000459565b600060209050601f8311600181146200056c576000841562000557578287015190505b620005638582620004d6565b865550620005d3565b601f1984166200057c8662000318565b60005b82811015620005a6578489015182556001820191506020850194506020810190506200057f565b86831015620005c65784890151620005c2601f891682620004b6565b8355505b6001600288020188555050505b505050505050565b61109780620005eb6000396000f3fe608060405234801561001057600080fd5b506004361061009e5760003560e01c8063c033662911610066578063c033662914610139578063c335987914610143578063e89ed2ba14610175578063f735d7431461017f578063f91e185a1461019b5761009e565b806310ff8e31146100a357806337a0701a146100d5578063737e42ad146100f35780638975de6b146100fd5780638ea286c21461011b575b600080fd5b6100bd60048036038101906100b89190610c81565b6101b9565b6040516100cc93929190610d23565b60405180910390f35b6100dd610220565b6040516100ea9190610d69565b60405180910390f35b6100fb61022d565b005b61010561052e565b6040516101129190610ea2565b60405180910390f35b610123610608565b6040516101309190610ea2565b60405180910390f35b6101416106e2565b005b61015d60048036038101906101589190610c81565b61073c565b60405161016c93929190610d23565b60405180910390f35b61017d6107a3565b005b61019960048036038101906101949190610f48565b610b55565b005b6101a3610c39565b6040516101b09190610d69565b60405180910390f35b600381815481106101c957600080fd5b90600052602060002090600302016000915090508060000160009054906101000a900473ffffffffffffffffffffffffffffffffffffffff16908060010154908060020160009054906101000a900460ff16905083565b6000600380549050905090565b60005b60016003805490506102429190610fca565b81101561052b5760005b60018260038054905061025f9190610fca565b6102699190610fca565b81101561051d57600360018261027f9190610ffe565b815481106102905761028f611032565b5b906000526020600020906003020160010154600382815481106102b6576102b5611032565b5b9060005260206000209060030201600101541215610510576000600382815481106102e4576102e3611032565b5b90600052602060002090600302016040518060600160405290816000820160009054906101000a900473ffffffffffffffffffffffffffffffffffffffff1673ffffffffffffffffffffffffffffffffffffffff1673ffffffffffffffffffffffffffffffffffffffff168152602001600182015481526020016002820160009054906101000a900460ff161515151581525050905060036001836103899190610ffe565b8154811061039a57610399611032565b5b9060005260206000209060030201600383815481106103bc576103bb611032565b5b90600052602060002090600302016000820160009054906101000a900473ffffffffffffffffffffffffffffffffffffffff168160000160006101000a81548173ffffffffffffffffffffffffffffffffffffffff021916908373ffffffffffffffffffffffffffffffffffffffff160217905550600182015481600101556002820160009054906101000a900460ff168160020160006101000a81548160ff02191690831515021790555090505080600360018461047b9190610ffe565b8154811061048c5761048b611032565b5b906000526020600020906003020160008201518160000160006101000a81548173ffffffffffffffffffffffffffffffffffffffff021916908373ffffffffffffffffffffffffffffffffffffffff1602179055506020820151816001015560408201518160020160006101000a81548160ff021916908315150217905550905050505b808060010191505061024c565b508080600101915050610230565b50565b60606004805480602002602001604051908101604052809291908181526020016000905b828210156105ff57838290600052602060002090600302016040518060600160405290816000820160009054906101000a900473ffffffffffffffffffffffffffffffffffffffff1673ffffffffffffffffffffffffffffffffffffffff1673ffffffffffffffffffffffffffffffffffffffff168152602001600182015481526020016002820160009054906101000a900460ff16151515158152505081526020019060010190610552565b50505050905090565b60606003805480602002602001604051908101604052809291908181526020016000905b828210156106d957838290600052602060002090600302016040518060600160405290816000820160009054906101000a900473ffffffffffffffffffffffffffffffffffffffff1673ffffffffffffffffffffffffffffffffffffffff1673ffffffffffffffffffffffffffffffffffffffff168152602001600182015481526020016002820160009054906101000a900460ff1615151515815250508152602001906001019061062c565b50505050905090565b60005b600a8110156107395760006003828154811061070457610703611032565b5b906000526020600020906003020160020160006101000a81548160ff02191690831515021790555080806001019150506106e5565b50565b6004818154811061074c57600080fd5b90600052602060002090600302016000915090508060000160009054906101000a900473ffffffffffffffffffffffffffffffffffffffff16908060010154908060020160009054906101000a900460ff16905083565b600a600380549050116108c05760005b6003805490508110156108ba576004600382815481106107d6576107d5611032565b5b906000526020600020906003020190806001815401808255809150506001900390600052602060002090600302016000909190919091506000820160009054906101000a900473ffffffffffffffffffffffffffffffffffffffff168160000160006101000a81548173ffffffffffffffffffffffffffffffffffffffff021916908373ffffffffffffffffffffffffffffffffffffffff160217905550600182015481600101556002820160009054906101000a900460ff168160020160006101000a81548160ff021916908315150217905550505080806001019150506107b3565b50610b53565b60005b600a811015610a055760011515600382815481106108e4576108e3611032565b5b906000526020600020906003020160020160009054906101000a900460ff161515036109f8576004600382815481106109205761091f611032565b5b906000526020600020906003020190806001815401808255809150506001900390600052602060002090600302016000909190919091506000820160009054906101000a900473ffffffffffffffffffffffffffffffffffffffff168160000160006101000a81548173ffffffffffffffffffffffffffffffffffffffff021916908373ffffffffffffffffffffffffffffffffffffffff160217905550600182015481600101556002820160009054906101000a900460ff168160020160006101000a81548160ff02191690831515021790555050505b80806001019150506108c3565b50600060048054905003610b52576000601460038054905010610a2957600a610a3c565b600a600380549050610a3b9190610fca565b5b905060005b81811015610b4f576004600382600a610a5a9190610ffe565b81548110610a6b57610a6a611032565b5b906000526020600020906003020190806001815401808255809150506001900390600052602060002090600302016000909190919091506000820160009054906101000a900473ffffffffffffffffffffffffffffffffffffffff168160000160006101000a81548173ffffffffffffffffffffffffffffffffffffffff021916908373ffffffffffffffffffffffffffffffffffffffff160217905550600182015481600101556002820160009054906101000a900460ff168160020160006101000a81548160ff02191690831515021790555050508080600101915050610a41565b50505b5b565b600060405180606001604052808573ffffffffffffffffffffffffffffffffffffffff1681526020018481526020018315158152509050600381908060018154018082558091505060019003906000526020600020906003020160009091909190915060008201518160000160006101000a81548173ffffffffffffffffffffffffffffffffffffffff021916908373ffffffffffffffffffffffffffffffffffffffff1602179055506020820151816001015560408201518160020160006101000a81548160ff0219169083151502179055505050610c3361022d565b50505050565b6000600480549050905090565b600080fd5b6000819050919050565b610c5e81610c4b565b8114610c6957600080fd5b50565b600081359050610c7b81610c55565b92915050565b600060208284031215610c9757610c96610c46565b5b6000610ca584828501610c6c565b91505092915050565b600073ffffffffffffffffffffffffffffffffffffffff82169050919050565b6000610cd982610cae565b9050919050565b610ce981610cce565b82525050565b6000819050919050565b610d0281610cef565b82525050565b60008115159050919050565b610d1d81610d08565b82525050565b6000606082019050610d386000830186610ce0565b610d456020830185610cf9565b610d526040830184610d14565b949350505050565b610d6381610c4b565b82525050565b6000602082019050610d7e6000830184610d5a565b92915050565b600081519050919050565b600082825260208201905092915050565b6000819050602082019050919050565b610db981610cce565b82525050565b610dc881610cef565b82525050565b610dd781610d08565b82525050565b606082016000820151610df36000850182610db0565b506020820151610e066020850182610dbf565b506040820151610e196040850182610dce565b50505050565b6000610e2b8383610ddd565b60608301905092915050565b6000602082019050919050565b6000610e4f82610d84565b610e598185610d8f565b9350610e6483610da0565b8060005b83811015610e95578151610e7c8882610e1f565b9750610e8783610e37565b925050600181019050610e68565b5085935050505092915050565b60006020820190508181036000830152610ebc8184610e44565b905092915050565b610ecd81610cce565b8114610ed857600080fd5b50565b600081359050610eea81610ec4565b92915050565b610ef981610cef565b8114610f0457600080fd5b50565b600081359050610f1681610ef0565b92915050565b610f2581610d08565b8114610f3057600080fd5b50565b600081359050610f4281610f1c565b92915050565b600080600060608486031215610f6157610f60610c46565b5b6000610f6f86828701610edb565b9350506020610f8086828701610f07565b9250506040610f9186828701610f33565b9150509250925092565b7f4e487b7100000000000000000000000000000000000000000000000000000000600052601160045260246000fd5b6000610fd582610c4b565b9150610fe083610c4b565b9250828203905081811115610ff857610ff7610f9b565b5b92915050565b600061100982610c4b565b915061101483610c4b565b925082820190508082111561102c5761102b610f9b565b5b92915050565b7f4e487b7100000000000000000000000000000000000000000000000000000000600052603260045260246000fdfea2646970667358221220b378be1d3b2e47de11e5f50d62b9448ac5a833efea3676e03095034142b4425864736f6c63430008180033",
  "linkReferences": {},
  "deployedLinkReferences": {}
}